:020000040800F2
:10000000F007002055010008151C0008031A00081D
:1000100000000000000000000000000000000000E0
:10002000000000000000000000000000191C000893
:100030000000000000000000171C00081B1C000846
:100040006701000800000000670100086701000860
:1000500067010008670100086701000867010008E0
:100060000000000067010008670100086701000840
:10007000670100089D1C0008AD1C0008000000007E
:100080006701000800000000000000006701000890
:100090000000000067010008670100086701000810
:1000A000000000006701000800000000492300086C
:1000B00000F002F800F03EF80CA030C80838241810
:1000C0002D18A246671EAB4654465D46AC4201D190
:1000D00000F030F87E460F3E0FCCB6460126334284
:1000E00000D0FB1AA246AB4633431847D423000086
:1000F000F4230000103A02D378C878C1FAD8520726
:1001000001D330C830C101D504680C6070470000CD
:100110000023002400250026103A01D378C1FBD823
:10012000520700D330C100D50B6070471FB51FBD0B
:1001300010B510BD00F080F91146FFF7F7FF02F08F
:100140006BF900F098F903B4FFF7F2FF03BC00F07D
:100150009BF900000748804707480047FEE7FEE795
:10016000FEE7FEE7FEE7FEE704480549054A064BC1
:10017000704700009B1C0008B1000008F00100203F
:10018000F0070020F0030020F0030020FEB5054634
:1001900010460C46184373D0AE468C460020AD1A6C
:1001A00001469C4167D36646002701243D46B61AA6
:1001B0009D4102D313463A462124654676462F04D4
:1001C000360C3E432D0CB61A9D4104D3150C1B046E
:1001D0002B4312041034654676462F06360A3E43FA
:1001E0002D0AB61A9D4104D3150E1B022B43120291
:1001F0000834654676462F0736093E432D09B61A60
:100200009D4104D3150F1B012B431201241D65468C
:100210007646AF07B6083E43AD08B61A9D4104D3F3
:10022000950F9B002B439200A41C65467646EF0772
:1002300076083E436D08B61A9D411AD392185B4169
:10024000641C16E00018764665464941B71A9D4180
:100250000191009009D36046B11A98418E468446B8
:10026000009801990025401C6941DD0752082A4386
:100270005B08641EE6D57246634603B0F0BDFFE737
:1002800000200146C046C0462A462346F5E701E065
:1002900004C0091F0429FBD28B0701D50280801CF2
:1002A000C90700D00270704700290BD0C30702D0E5
:1002B0000270401C491E022904D3830702D5028024
:1002C000801C891EE3E70022EEE70022DFE7002220
:1002D00003098B422CD3030A8B4211D300239C4683
:1002E0004EE003460B433CD4002243088B4231D3FB
:1002F00003098B421CD3030A8B4201D394463FE08F
:10030000C3098B4201D3CB01C01A524183098B42EE
:1003100001D38B01C01A524143098B4201D34B01D7
:10032000C01A524103098B4201D30B01C01A52413A
:10033000C3088B4201D3CB00C01A524183088B42C1
:1003400001D38B00C01A524143088B4201D34B00AA
:10035000C01A5241411A00D201465241104670471C
:100360005DE0CA0F00D04942031000D34042534021
:1003700000229C4603098B422DD3030A8B4212D3E1
:10038000FC22890112BA030A8B420CD38901921113
:100390008B4208D3890192118B4204D389013AD050
:1003A000921100E08909C3098B4201D3CB01C01A25
:1003B000524183098B4201D38B01C01A5241430938
:1003C0008B4201D34B01C01A524103098B4201D326
:1003D0000B01C01A5241C3088B4201D3CB00C01A93
:1003E000524183088B4201D38B00C01A5241D9D2AB
:1003F00043088B4201D34B00C01A5241411A00D22C
:100400000146634652415B10104601D34042002B27
:1004100000D54942704763465B1000D3404201B5A6
:100420000020C046C04602BD7047704770470000BC
:1004300000487047900100207546FFF7F9FFAE466F
:10044000050069465346C008C000854618B020B56F
:10045000FFF78AFE60BC00274908B6460026C0C5E3
:10046000C0C5C0C5C0C5C0C5C0C5C0C5C0C5403D6C
:1004700049008D46704710B50446C046C046204628
:10048000FFF761FE10BD000001491820ABBEFEE77A
:1004900026000200704772B6FEE730B501462031F3
:1004A0004B780022022B04D0042383630A700120BE
:1004B00030BD03681C680E25AC431C6003681C68D3
:1004C000640864001C600123056C1C46C06BAC40D2
:1004D00044604B700A70002030BD70B500240146A6
:1004E00020314A78022A03D004218163012416E0D6
:1004F000026813680E25AB431360026813685B083B
:100500005B0013600122056C1346AB40C56B6B604A
:100510004A7000220A70416B002900D088472046AB
:1005200070BD000070B5044600F0E6F80546601C9A
:1005300002D004480078241800F0DEF8401BA042E6
:10054000FAD370BD00000020F8B500230324012574
:10055000BAE02E469E40B44632407CD00E79B607B3
:10056000B60F012E01D0022E17D186682746B64657
:100570005E00B74000967646BE43B646CF68009E02
:10058000B74076463743876046686746BE430F7973
:10059000FF06FF0F9F40374347600E79F643B607CB
:1005A0000ED0C6682746B4465E00B646B7406646DB
:1005B000BE43B4468F687646B74066463743C76049
:1005C0000E79B607B60F022E14D1DE08B600361823
:1005D0000096366A5F07B446FE0E0F27B646B74050
:1005E0006646BE43B4460F697646B7406646374313
:1005F000009E376206682746B4465E00B646B7409E
:100600006646BE430F79B446BF07BF0F7646B74074
:100610006646374307604E68B603B60F53D02D4F7A
:10062000BE692E43BE61BE699F08F607F60F2A4ECB
:10063000BF00BE190096B6680F27B4469E07360F56
:10064000B646B7406646BE430927FF06B446B842E1
:1006500002D1002710E036E0204FB84201D1012737
:100660000AE01F4FB84201D1022705E01D4FB842F2
:1006700001D1032700E005277646B7406646374399
:10068000009EB760184EB6684F689643FF0200D5CB
:100690001643154FBE60FE684F689643BF0200D5F3
:1006A0001643114FFE607E684F689643BF0300D526
:1006B00016430D4F7E603E684F689643FF0300D59A
:1006C0001643094A16605B1C0A681646DE4000D0D5
:1006D0003FE7F8BD00100240000001400004004860
:1006E00000080048000C004800040140002A01D026
:1006F00081617047816270470148806870470000DF
:100700000000002070B5024640325378202B1CD1E7
:100710001378012B19D0012313702424547004681A
:1007200025689D432560046825681E03B543256040
:10073000046825680D43256000680168194301605D
:10074000202050700020107070BD022070BD70B568
:10075000024640325378202B1BD11378012B18D03E
:10076000012414702423537003681D68A5431D6081
:1007700005682B680F263602B34309021943296026
:100780000068016821430160202050700020107033
:1007900070BD022070BD000070B5040006D0254673
:1007A000403568780026002802D005E0012070BDA1
:1007B0002E70204600F04EF82420687020680168F2
:1007C0004908490001600F216068090688432168D3
:1007D000086121688A680120C00382438A60E16859
:1007E0000129A1682FD02122920211432268916031
:1007F0000121E268C902022A2268536825D08B438E
:10080000536021684A68124B1A434A602168CA68DB
:100810008243CA60616920690843A16909020843EB
:100820002168C860216AE06908432168086020687F
:10083000016801221143016066642020687026630C
:10084000AE70002070BD0143D0E70B43D8E7000035
:100850000080000210B586B0044614216846FFF7F8
:1008600034FD1249206888421ED1114C6169012073
:10087000800401436161616901400591C0200090DD
:100880001220019000200290032003900120049088
:1008900069460848FFF758FEE16901204005014319
:1008A000E161E1690140059106B010BD00540040CE
:1008B000001002400004004802488168027889184C
:1008C000816070470000002010B5064801681022C2
:1008D00011430160032000F007F800F027F8002022
:1008E00010BD00000020024070B504460D4D7D2073
:1008F0002978C000FFF7EBFC01460B480068FFF7C2
:10090000E6FC00F071FB002809D1042C07D200227C
:100910002146401E00F02AF800206C6070BD0120C6
:1009200070BD0000000000200C00002008B5084841
:100930008169012211438161816911400091C2697D
:1009400001040A43C261C0690840009008BD00006C
:1009500000100240002805DBC106C90E01208840B6
:10096000014908607047000000E100E010B501F0A7
:100970000BFD10BDF8B505460068354CC00352D5D7
:10098000E0690026C00007D4E16920040143E16169
:10099000E1690140012600912E480168C90510D483
:1009A0000168821511430160FFF7A6FE074604E0C7
:1009B000FFF7A2FEC01B642824D826480068C005A3
:1009C000F6D5206A03273F02384020D069683940B5
:1009D00081421CD0206A226AB843012109040A43DB
:1009E0002262226A8A4322622062C0070FD0FFF788
:1009F00083FE009008E0FFF77FFE0099411A164839
:100A0000814201D90320F8BD206A8007F3D5206A0E
:100A10006968B84308432062002E04D0E1690120D0
:100A200000078143E1612878C00705D0206BA968E1
:100A300080088000084320632878800605D5206B55
:100A400010218843E968084320630020F8BD0000B6
:100A5000001002400070004088130000F8B50F46F7
:100A6000060059D03A4D2868C007C00FB84209D2D5
:100A7000286840084000384328602868C007C00F35
:100A8000B84249D13068334C81070CD5400704D5B2
:100A9000606807210902084360606068F0218843AC
:100AA000B168084360603078C00726D070680128BC
:100AB0000ED0216802280ED0890700292CDA61683F
:100AC0008908890001436160FFF716FE00900DE080
:100AD00021688903F1E78901EFE7FFF70DFE00992F
:100AE000411A1D48814201D90320F8BD60680C21DC
:100AF0000840716889008842EFD12868C007C00F9C
:100B0000B8420BD92868400840003843286028685C
:100B1000C007C00FB84201D00120F8BD30784007AF
:100B200006D56068072109028843F16808436060C0
:100B300000F028F86168094A0906090F515CC840AD
:100B4000074908600320FFF7CFFE0020F8BD000032
:100B5000002002400010024088130000A824000872
:100B60000C0000200448054900684968044A49050A
:100B7000490F515CC84070470C0000200010024033
:100B8000B824000810B5104A51680C200B460340E9
:100B90000E48042B17D0082B15D18B020C4C1B0FC1
:100BA000E45CD26A0A4B1207120F10339A5CC90335
:100BB00005D500231946FFF7E9FA214601E0204652
:100BC000044901F0C9FB10BD0010024000127A0078
:100BD0008824000800093D00FEB5040070D020788C
:100BE000DC4DC0074AD068680007800F012807D095
:100BF00068680007800F022809D16868C00306D51D
:100C0000286880033AD560680028E7D036E061683C
:100C1000012914D001208004002901D0052914D015
:100C20002A68012109048A432A60296881432960CE
:100C30006068002816D0FFF75FFD06460EE02868C2
:100C40000121090408432860F2E72968014329606B
:100C5000F5E7FFF751FD801B64286ED828688003F4
:100C6000F7D50BE0FFF748FD064604E0FFF744FD2B
:100C7000801B6428F1D828688003F7D420780126E7
:100C8000800700283CDA68680007800F07D0686892
:100C90000007800F022809D16868C00306D42868BD
:100CA000800716D5E06801280AD112E0E068002824
:100CB000286816D030432860FFF71EFD074605E080
:100CC00043E1FFF719FDC01B0228C6D8286880073A
:100CD000F7D52868F82188432169C90008432860AE
:100CE0000EE0400840002860FFF706FD074604E0DC
:100CF000FFF702FDC01B0228AFD828688007F7D491
:100D00002078000722D5E0690028686A0ED03043B9
:100D10006862FFF7F1FC074604E0FFF7EDFCC01B3B
:100D200002289AD8686A8007F7D50FE0400840008B
:100D30006862FFF7E1FC074605E09DE0FFF7DCFC99
:100D4000C01B022889D8686A8007F7D42078042756
:100D50004007002860DA00200190E869C00008D44C
:100D6000E969B8060143E961E969014001200091A0
:100D7000019079480168C90511D4016882151143B1
:100D80000160FFF7B9FC009005E0FFF7B5FC0099A2
:100D9000401A642870D870480068C005F5D5A0686E
:100DA00001280AD0002801D0052810D0286A400860
:100DB00040002862286AB84301E0286A304328626C
:100DC000A068002812D0FFF797FC00900AE0286A7C
:100DD00038432862F1E7FFF78FFC0099411A5F481A
:100DE000814249D8286A8007F5D50DE0FFF784FCD9
:100DF000009006E0FFF780FC0099411A57488142B5
:100E00003AD8286A8007F5D40198002804D0E96907
:100E1000012000078143E9612078C00635D560696B
:100E200001280CD0401D686B23D038436863686B81
:100E3000400840006863FFF75FFC064622E0686BED
:100E400038436863686B30436863FFF755FC0646B8
:100E500004E0FFF751FC801B02285BD8686B800719
:100E6000F7D5686BF8218843A169C9000843686316
:100E70000BE0B8436863F4E74CE0FFF73DFC801BF0
:100E8000022847D8686B8007F7D4206A00285ED014
:100E900069680907890F022942D00126360602280F
:100EA000286805D0B0432860FFF726FC044633E0ED
:100EB000B0432860FFF720FC074604E0FFF71CFC66
:100EC000C01B022826D828688001F7D4E86AE16AA6
:100ED000000900010843E862616AA06A0843696882
:100EE0003D2212049143084368602868304328601B
:100EF000FFF702FC044604E0FFF7FEFB001B02289C
:100F000008D828688001F7D521E0FFF7F5FB001B22
:100F1000022801D90320FEBD28688001F5D416E01F
:100F20000128F8D06868E96A01221204636A024065
:100F30009A420AD10907E26A090F914205D10F21AD
:100F400089040840A16A884201D00120FEBD00202A
:100F5000FEBD000000100240007000408813000039
:100F6000F8B51D4616460F46040003D0E06F002872
:100F700002D007E00120F8BD00217820015520466D
:100F800000F006FD2420E067206801684908490058
:100F90000160606A002802D0204600F0F9FF204678
:100FA00001F0F8F80128E6D0206881680122920358
:100FB00011438160216888685200904338438860FB
:100FC00071052804226808431168064B1940014343
:100FD000116020680168012211430160204601F080
:100FE0003DF8F8BDFFFF00FC094910B5401E8842DE
:100FF00001D9012010BD074C60610321081F01F0D9
:10100000C3F90020A06107202061002010BD00006E
:10101000FFFFFF0000E000E070477047F0B50246B8
:101020002032137F012B1BD0012616770223537722
:1010300005686B68AC687027BB430F681F436F601F
:101040000068084B984202D0074B984204D1802395
:1010500049689C4321438160567700201077F0BD9A
:101060000220F0BD002C01400004004070B50400D7
:1010700005D025462035687F002802D006E00120F3
:1010800070BD00202877204600F014F80220687711
:10109000211D206800F012FE01204034A071A877C5
:1010A000E87720706070A070E070207160716877E0
:1010B000002070BD08B500680549884207D1054881
:1010C000C26902210A43C261C0690840009008BD9C
:1010D0000004004000100240F8B5054604462035E3
:1010E000287F0026012817D0012028770220687762
:1010F000226890687727FF23B8431B0298439060CB
:101100000868502838D00EDC20284FD006DC002894
:101110004CD010281ED149E00220F8BD302845D01F
:10112000402817D13AE060282ED0702819D001222B
:101130001203801A0FD090420CD1CB684A6889689C
:10114000206800F00CFE20688168012292031143A0
:10115000816000E001260120687700202877304672
:10116000F8BDCB684A688968206800F0F8FD2168FE
:10117000886838438860EEE7CA684968206800F0EC
:10118000E3FE5021206806E0CA684968206800F044
:10119000ECFE6021206800F0EDFDDCE7CA684968DC
:1011A000206800F0D1FE40212068F4E72268014663
:1011B0001046F0E7F8B50D46040005D02646203667
:1011C000707F002802D006E00120F8BD00203077B3
:1011D000204600F043F802207077206881681C4A9E
:1011E00011408160211D206800F068FD2268906830
:1011F0009369116A2F680743BC461648AF690340DC
:101200003F021F43A868144B3843EF6918403F0260
:101210000743EB6828693B432F6A00013F033843CB
:101220001843AA2399436B686D6967462D010D43E6
:101230002B43976021688861206803620120403455
:10124000A071B077F077A070E07070770020F8BDE3
:10125000F8BFFFFFFCFCFFFF0303FFFF10B586B0E4
:10126000044614216846FFF730F81949206888427F
:101270002CD118488269C1140A43826182690A40EC
:101280000592426989010A4342614069084005901C
:10129000032000020090002002210290039001919F
:1012A000049109206946C006FFF74EF90022114655
:1012B0000D20FFF75BFB0D20FFF74CFB00221146D2
:1012C0000E20FFF753FB0E20FFF744FB06B010BDC6
:1012D000002C014000100240F0B502462032957FFC
:1012E0000446D37F40308778C678002904D004298B
:1012F00012D0012D23D11CE0012D20D1012F1ED1B0
:1013000002259577857001220021206800F01AFDE2
:101310002068C16829432BE0012B10D1012E0ED18A
:101320000221D177C17001220421206800F00AFD5A
:101330001AE0012B03D1012F01D1012E01D0012090
:10134000F0BD02259577D5778570C5700122002103
:10135000206800F0F7FC01220421206800F0F2FC74
:101360002068C1682943C1602068C1680422114314
:10137000C160206801680122114301600020F0BDB6
:1013800000680C49884213D10B480068416A0B4839
:10139000818081884288891A09B2002903DA0122F2
:1013A0001204891809B202695118016181884180CB
:1013B00070470000002C0140780000201000002041
:1013C000F8B504460068C66805690027A907002922
:1013D00013DAB10711D5F91E0161012020772068C9
:1013E00080698007204602D0FFF7CAFF04E000F0C2
:1013F000A3F8204600F02EF92777680716D5700766
:1014000014D504202168C043086102202077206899
:1014100080698005800F204602D0FFF7B1FF04E00D
:1014200000F08AF8204600F015F92777280715D52F
:10143000300713D508202168C043086104202077B5
:101440002068C0698007204602D0FFF799FF04E0BA
:1014500000F072F8204600F0FDF82777E80616D570
:10146000F00614D510202168C043086108202077B9
:101470002068C0698005800F204602D0FFF780FFFA
:1014800004E000F059F8204600F0E4F82777E80778
:1014900008D0F00706D001202168C043086120462B
:1014A00000F028F9280608D5300606D580202168E6
:1014B000C04308612046FFF7AFFD680608D57006F7
:1014C00006D540202168C0430861204600F013F98A
:1014D000A80608D5B00606D520202168C0430861BB
:1014E0002046FFF79AFDF8BD10B586B004461421DA
:1014F0006846FEF7EAFE0E492068884215D10D487D
:10150000426949130A434261406908400590C0207E
:10151000009002200190002002900390012004908E
:1015200009206946C006FFF70FF806B010BD00009D
:1015300000040040001002407047F8B5064604461B
:101540002036307F00270D4601280ED0012030774D
:10155000002A0CD0042A1BD0082A2FD00C2A3ED0F7
:101560000127002030773846F8BD0220F8BD2068FA
:1015700000F008FC2068816908221143816120681D
:10158000826904218A438261206881692A6912E0A4
:10159000206800F033FC206882690121C9020A43F7
:1015A00082612068816901229202914381612068F1
:1015B00081692A69120211438161D2E7206800F033
:1015C00057FC2068C16908221143C1612068C269C3
:1015D00004218A43C2612068C1692A6912E0206837
:1015E00000F082FC2068C1690122D2021143C1616E
:1015F0002068C269012189028A43C2612068C169E9
:101600002A6912021143C161ABE770B5040005D02D
:1016100025462035687F002802D006E0012070BDF5
:1016200000202877204600F014F802206877211D5A
:10163000206800F043FB01204034A071A877E877D0
:1016400020706070A070E070207160716877002079
:1016500070BD70477047000010B50446022220306C
:1016600000290AD004290DD02046403008290ED088
:101670004378012B10D0012010BD837F012BFAD1BC
:1016800082770AE0C37F012BF5D1C27705E00378AA
:10169000012BF0D1027000E042700122206800F0BE
:1016A00051FB10492068884205D00F4A904202D071
:1016B0000E4A904204D1426C0123DB031A43426478
:1016C00020680122884202D00949884204D18168F9
:1016D0004907490F062902D0016811430160002023
:1016E00010BD0000002C01400044014000480140B2
:1016F000000400407047704770477047F8B50268B3
:101700000446D069116893689E4D06462E402546D2
:101710008035002E71D09C4FDE07F60F0F40374307
:101720007ED0C70706D0CF0504D5012717626A68A7
:101730003A436A60820708D5DA0706D02768022292
:101740003A626A6804273A436A60420708D5DA07B2
:1017500006D0236804221A626A6802231A436A6068
:10176000020709D520220A40324305D02368082207
:101770001A626B6813436B60020509D54A0107D5ED
:1017800001222368D2021A626B68202213436B6025
:101790006A68002A39D0800606D5880604D5A16E6D
:1017A000002901D020468847686821688968490671
:1017B00002D4282108422DD0204600F0BBFC21682D
:1017C0008868400622D5EFF31080012282F310884A
:1017D0008A6840239A438A6080F31088606F0028EB
:1017E00014D06A494163606FFEF777FE00280CD081
:1017F000606F416B08E000E012E0830610D58B06B5
:101800000ED5A16EA3E020468847F8BD2046FFF71D
:1018100074FFF8BD2046FFF770FF00206860F8BD38
:10182000236E012B7ED1C3067CD5CB067AD510233F
:10183000136222689068264640064036002848DA3F
:10184000616F086840680004000CE8D0378B87425D
:10185000E5D970838869202834D0EFF31080012106
:1018600081F3108811681F01B943116080F310885B
:10187000EFF31080012181F3108821688A685208F3
:1018800052008A6080F31088EFF31080012181F309
:10189000108821688A684027BA438A6080F31088DC
:1018A0002020286000202066EFF31080012181F3C2
:1018B000108821680A689A430A6080F31088606F74
:1018C000FEF7EBFD02206066308B718B401A81B20F
:1018D00034E0308B718B401A81B2708B00289ED01F
:1018E00000299CD0EFF31080012686F3108816683B
:1018F000FF272137BE43166080F31088EFF3108076
:10190000012282F310882268966876087600966035
:1019100080F310882020286000202066A066EFF366
:10192000108000E00EE0012282F310882268156822
:101930009D43156080F31088022060662046FFF703
:10194000DBFEF8BD030606D50B0604D5E16E0029C3
:1019500000D058E7F8BD4006FCD54806FAD5204629
:10196000EFF31081012383F31088146840239C4314
:10197000146081F310882021C1670021C16600F046
:101980003FF8F8BD0F0800002001000421210008E5
:1019900010B586B0044614216846FEF796FC164939
:1019A0002068884226D115488269012189030A43AB
:1019B000826182690A4005924269C9000A43426114
:1019C0004069084005900E20009002200190002000
:1019D0000290032003900120049009206946C0066C
:1019E000FEF7B2FD002211461B20FEF7BFFF1B20B1
:1019F000FEF7B0FF06B010BD0038014000100240F5
:101A00007047FEE730B587B014216846FEF75DFCED
:101A100011484269012149040A43426142690A406E
:101A20000592426949000A4342614069092508401C
:101A30000C12ED060590002221462846FEF756FEC0
:101A400000210120029103910190009469462846EB
:101A5000FEF77AFD07B030BD0010024010B5134804
:101A600011490160124941600021816001614161B9
:101A700081610122C161C2600162FEF78DFE002812
:101A800001D0FEF708FD00210848FEF73BFE0028C4
:101A900001D0FEF700FD00210448FEF758FE0028A3
:101AA00001D0FEF7F8FC10BD0054004024000020D7
:101AB0002B1D200010B58CB024216846FEF705FCD4
:101AC00000241549154809940A9412C004608460E2
:101AD000C460134904614160032000900120019417
:101AE0000290039406900494059407946946089420
:101AF0000A48FFF75FFB002801D0FEF7CCFC0994F1
:101B000009A906480A94FFF789FA002801D0FEF7D0
:101B1000C2FC0CB010BD0000002C01407800002079
:101B2000FFFF000010B58EB00024079408940994BC
:101B30000A940B941C2168460C94FEF7C6FB2548BA
:101B4000234901601621846041600461642184613D
:101B5000C160FFF78BFA002801D0FEF79CFC012042
:101B60000003079007A91B48FFF7B6FA002801D029
:101B7000FEF791FC1748FFF748FD002801D0FEF75B
:101B80008AFC0B940BA913480C94FFF747FA002822
:101B900001D0FEF780FC60200090019402940022A6
:101BA000694604940B48FFF7C8FC002801D0FEF7F3
:101BB00072FC042269460748FFF7BFFC002801D0E9
:101BC000FEF769FC0348FFF78FFC0EB010BD000064
:101BD00000040040C000002010B50D480B49016012
:101BE000E1214902416000218160C16001618161A0
:101BF000C1610C22016242610B4641620A46FFF755
:101C0000AFF9002801D0FEF746FC10BD00380140B6
:101C100008010020FEE77047704710B5FEF74CFE44
:101C200010BD30B595B030216846FEF74EFB00245C
:101C30000D94129401200E94039013941020099493
:101C4000022504900F9405200095C0040C94109474
:101C50000A90119408950B946846FEF7BDFF002882
:101C600001D072B6FEE707200C900E9401210D956D
:101C70000F940CA8FEF7F2FE002801D072B6FEE722
:101C8000212010901294139410A8FEF773FE0028E0
:101C900001D072B6FEE715B030BD704710B50248EE
:101CA000FFF78EFB10BD00007800002010B5024841
:101CB000FFF786FB10BD00007800002070B50268B9
:101CC0001B4B1C4E984201D0B04203D17024A2435A
:101CD0004C682243184C194D984208D0B04206D0A7
:101CE000174EB04203D0A04201D0A84204D103262F
:101CF0003602B243CE6832438026B2434E69324345
:101D000002608A68C2620A688262984203D0A04276
:101D100001D0A84201D10969016301214161016932
:101D2000C90703D0016949084900016170BD00007D
:101D3000002C0140000400400044014000480140E4
:101D40000020004010B5CB06DB0E0121046A99404B
:101D50008C430462016A9A401143016210BD30B5A0
:101D60008468FF252D021B021343AC430B4323431E
:101D7000836030BD826870239A430A4307210A4377
:101D800082607047F0B5056A026A5208520002622A
:101D9000436882697024A24392080C68920014433D
:101DA000022295438A68134E2A43114DA84204D05B
:101DB000B04202D0104FB84206D10827BA43CF68CC
:101DC0001743042297433A46A84204D0B04202D0B7
:101DD000094DA84206D103252D02AB434D691D4391
:101DE0008B692B4343608461496841630262F0BDA3
:101DF000002C0140004401400048014070B5046AD5
:101E0000026A10239A4302624368826973252D0295
:101E1000AA430D682D021543202294438A681201BB
:101E20002243104CA04208D11446CA688026B4430D
:101E3000120122434024A24305E00B4CA04202D0F1
:101E40000A4CA04208D10324A402A3434C69A40075
:101E50001C438B699B002343436085614968816310
:101E6000026270BD002C0140004401400048014066
:101E700070B5056A026AFF2301339A430262426821
:101E8000C3697024A3439B080C689B001C43012377
:101E90005B029D438B681B022B43104DA84208D167
:101EA0001D46CB68C614B5431B022B430515AB4337
:101EB00005E00B4DA84202D00A4DA84208D10325E7
:101EC0002D03AA434D692D0115438A6912012A4346
:101ED0004260C4614968C163036270BD002C014067
:101EE000004401400048014030B5046A026A012301
:101EF0001B039A4302624368C26973252D02AA43F9
:101F00000D682D0215430122520394438A6812037F
:101F100022430A4CA04205D0094CA04202D0094CF1
:101F2000A04205D10124A403A3434C69A401234387
:101F30004360C56149680164026230BD002C014004
:101F4000004401400048014030B5036A046A640857
:101F5000640004628469F025AC43120122430A2420
:101F6000A3430B438261036230BD30B5046A036A48
:101F70001025AB43036283690F252D031203AB4386
:101F80001A43A0239C43090121438261016230BDB1
:101F900010B5818C090707D501684A680123DB0366
:101FA0009A43436B1A434A60818CC90707D0016882
:101FB0004A6801235B049A43836A1A434A60818C0E
:101FC000890707D501684A6801231B049A43C36A3D
:101FD0001A434A60818C490707D501684A68012382
:101FE0009B049A43036B1A434A60818CC90607D548
:101FF0000268916801231B039943836B1943916025
:10200000818C890607D501688A6801235B039A439E
:10201000C36B1A438A60818C490612D503685A68DB
:1020200001210905046C8A4322435A60026C8A42EA
:1020300007D10268516803235B059943436C194338
:102040005160818C090607D501684A680123DB04C9
:10205000806C9A4302434A6010BD0000FEB50746FB
:102060000025803704467D60FEF746FB019020681E
:102070000068264600076036002819DA27480090D5
:102080000121002249052046019B00F011F900289A
:102090000ED0EFF31080012181F3108821680A68C7
:1020A00080239A430A6080F310882020E06729E0AB
:1020B00020680068400728D51848009001210022B8
:1020C00089052046019B00F0F3F800281DD0EFF3AE
:1020D0001080012181F3108821680A68FF232133D1
:1020E0009A430A6080F31088EFF31080012181F396
:1020F000108821688A68520852008A6080F310882C
:102100002020386035760320FEBD2020E06738604F
:102110002566656635760020FEBD0000FFFFFF01E5
:1021200010B5406A0022014640314A834A82FFF7D7
:10213000E4FA10BD10B5EFF31081012282F310888C
:1021400002681368FF242134A343136081F31088CD
:10215000EFF31081012282F31088026893685B0814
:102160005B00936081F31088016E01290BD1EFF3BE
:102170001081012282F31088026813681024A3439F
:10218000136081F31088202280210A50002101660B
:10219000816610BD70B5044680682169E269084314
:1021A000616900251143084321680A683C4B1A40C5
:1021B00002430A6021684868032212039043E268E0
:1021C00010434860A169206A084321688A680B238C
:1021D0001B029A4302438A603248006B8007800FDB
:1021E00016D0012818D0022818D0032812D01021A8
:1021F0000122E369D2032C482C4E93422AD10029B4
:102200000ED0022913D004290DD008293BD11FE09C
:102210000021EDE70221EBE70421E9E70821E7E7E8
:10222000FEF7A0FC01E0FEF7ADFC002832D06168AB
:1022300040004A088018FEF74AF801461039B142BA
:1022400021D81A49491C01400007400F08431FE0EC
:102250001046ECE7002906D002290BD0042905D04E
:10226000082910D111E0FEF77DFC01E0FEF78AFCA1
:1022700000280FD061684A081018FEF728F80146B8
:102280001039B14203D9012504E01046F2E780B2CB
:102290002168C8600020A066E066284670BD000086
:1022A000F369FFFF0010024000127A00EFFF000008
:1022B000FFB506468036054681B00F4604466035B8
:1022C00034E00A98401C31D0FEF716FA0499411AFE
:1022D0000A98814218D8002816D02068016849075A
:1022E00024D5802F22D0402F20D0C169C9430907AF
:1022F0000CD4082707622046FFF71CFF77600020F8
:102300002876012005B0F0BD0320FBE7C069C0437B
:1023100000050BD401202168C00208622046FFF7A7
:1023200009FF2020706000202876EDE72068C16951
:102330003846884305D0002103988142C1D000204F
:10234000E0E70121F8E7000010B50248FFF7D6F9F1
:1023500010BD000008010020F8B5040C8BB2264621
:1023600082B25E430D0C1046370C58433604801978
:102370000021794116466E43370C360480197941A5
:1023800026466E438919F8BD8307FF22DB0E9A406B
:102390008907090E9940002808DB830809489B003B
:1023A0001B18186890430843186070470007000F17
:1023B0000838830804489B001B18D86990430843D9
:1023C000D861704700E400E000ED00E010B5084A75
:1023D00000231468012903D00229636304D000E0BC
:1023E00060631068836310BD1168886310BD0000CE
:1023F000C000002010B53C210548FEF76DFF00210C
:102400000448FFF729F904210248FFF725F910BD18
:1024100078000020C0000020FEF756FAFFF701FC0C
:10242000FFF7F0FAFFF71AFBFFF744FBFFF77AFB21
:10243000FFF7D2FBFFF7DEFF00F002F8FCE7000039
:1024400070B501213220FFF7C1FF0E4C2046FEF788
:1024500069F800210846FFF7B9FF7D25ED00284601
:10246000FEF760F802213220FFF7B0FF2046FEF7AA
:1024700059F800210846FFF7A9FF2846FEF752F851
:1024800070BD000088130000020304050607080958
:102490000A0B0C0D0E0F10100102030405060708AD
:1024A000090A0B0C0D0E0F100000000000000000C8
:1024B00001020304060708090000000001020304EA
:1024C000E02400080000002024000000F4000008C0
:1024D0000425000824000020CC070000100100089B
:1024E00001000000040000000000000000127A005B
:1024F00032000000000000000000000000000000AA
:0425000000000000D7
:04000005080000B13E
:00000001FF
